S32508000000F80600200D060008330600083506000837060008390600083B0600080000000040
S325080000200000000000000000000000003D0600083F0600080000000041060008C3140008EC
S3250800004045060008450600080000000045060008450600084506000845060008450600084D
S3250800006000000000450600084506000845060008450600084506000845060008450600082D
S325080000804506000800000000000000004506000800000000450600084506000845060008B3
S325080000A00000000045060008450600080F160008450600080348854601F054FB0048004727
S325080000C0D9010008F806002010B504462146FE4801F048F900BF0121FB4801F04AF90028A4
S325080000E0F9D010BD70B504460D4603E02078641CFFF7EAFF2846691E8DB20028F6D170BD70
S3250800010030B502460B46F14811E01478521C604000210AE0C407E40F002C04D04410EC4D39
S325080001206C40204600E04010491C0829F2DB1C465B1E002CE9D130BDF8B504460D462746A7
S32508000140002606E0384601F0F5F9012080023F18761CAE42F6DBF8BD70B58AB06D46DD4CEB
S325080001600026DD492068884226D103210903E068884221D201F01AF928222146284601F093
S32508000180DFFA701EA860E8600A21284601F01EF9A068A860E068E860E06828388108CD4813
S325080001A0283001F013F90646A068B04202D100200AB070BD0120FBE70220F9E770B5064646
S325080001C00C46254602222946304601F0C3F9688800042988084370BD9EB0C0A103C91D9158
S325080001E01C90C0A103C91B911A900020C0430C900B9000200990401E08900790B54806908F
S3250800020000200590049003900190009001F031F94B20C00101F0B0F90121402000F08EFFF3
S325080002200C20039019A9B148FFF7C8FF0C9019A9A848FFF7C3FF0B90A7490C98884207D1A2
S325080002400120059019A9A9480830FFF7B7FF0890A1490B98884230D1012004909D48001D9C
S3250800026001F04AF9C0B2C12825D119A999480830FFF7A4FF079007990898884211D0FFF7FF
S325080002806BFF00900098002808D198480399FFF753FF96498F4801F006FA0EE001200190B2
S325080002A00BE00598002808D007990898884204D10120019001E001200190019800280FD0E4
S325080002C000BF84480399FFF737FF19A98148FFF775FF0B9080490B98884201D00020049072
S325080002E0FA2001F0F2F8824800781B280ED17F480399FFF721FF19A97C48FFF75FFF0C90A8
S3250800030075490C98884201D0002005900598002807D00498002804D17448283001F0E8F902
S3250800032007E00598002802D10498002801D000F0FEF8FBE06F48008800284DDD6C4800781D
S3250800034020287CD16B480088082845DB68484078032803D066484078062859D1002065497D
S325080003600880082262490DA801F0EAF906210DA8FFF7C6FE044608A8807EE1B288422BD1A2
S3250800038008A8C07E21128842F9D108A8C07D812823D1FFF7E1FE009008A8007E010208A8CA
S325080003A0407E08184006010E08A881750021C1750099017605210DA8FFF7A2FE044608A884
S325080003C044762112817607210DA8FFF78BFE00980028D4D101200290A2E008A8C07D01281F
S325080003E004D107211CA8FFF77DFE99E008A8C07D952808D137480399FFF79EFE08210DA836
S32508000400FFF770FE8CE007211AA8FFF76BFE87E03748407810287CD13548C078822878D1EA
S32508000420344800882D287BDB0020324908802D222F490DA801F084F92B210DA800E06CE0C5
S32508000440FFF75EFE044610A8C07FE1B2884267D118A800782112884262D108A9C87E000601
S32508000460097F0904084308A9497F0902084308A9897F05460D43002D15D11648069010A9AB
S32508000480887B0006497B0904084310A9097B0902084310A9C97A06460E4377117801301AB2
S325080004A00A90202009906811B84201D10A9809900DA9099A069801F0CFF806982030069008
S325080004C006210DA819E024E000380140FFFF000001A000000018000855AA55AA20030202D8
S325080004E0000523002003020001C5830000480008C40000201400002012E0FFF701FE0446BF
S3250800050008A884762112C17608210DA8FFF7EAFD06E000200A49088002E000200849088042
S325080005200298002802D000BF00F001F802E7BFF34F8F04480449C860BFF34F8F00BFFEE703
S32508000540140000200400FA0500ED00E000202C490968012211432A4A116000BF2849096886
S32508000560022211400029F9D025490968D2049143234A11601146096804229143204A116002
S325080005801115516011211F4A11601D494968890889001B4A51601146496802221143184A41
S325080005A0516005E0164949688905080E8007800F0228F7D1704710B5FFF7C8FF10BD10B510
S325080005C00F480068012108430D490860084640680D4908400A4948600846006809210904A7
S325080005E088430749086008460068012189048843034908609F2000048860FFF7DCFF10BD3D
S3250800060000100240002002400000FFF00E4880F308880E480168090E0D4A914205D10D48A5
S325080006200D4901600D480E4901600E4880470E480047FEE7FEE7FEE7FEE7FEE7FEE7FEE7EB
S32508000640FEE7FEE7FEE70000F8060020040000001F000000181002400100000000000140F0
S3250800066000000000BF050008B500000801460020FE4A10683822104002460A431046FB4AE2
S3250800068010607047F949096808229143F74A116011460968014311607047F44909681022AE
S325080006A09143F24A116011460968014311607047EF48EE494860EF4848607047EB4800692F
S325080006C080210843E949086170470420E749C968C907C90F002901D0012010E0E349C96839
S325080006E004221140002901D0022008E0DF49C96810221140002901D0032000E004207047BD
S3250800070008B500200090FF20009002E00098401E009000980028F9D108BD70B50446042560
S32508000720FFF7D3FF054605E0FFF7EAFFFFF7CDFF0546641E012D01D1002CF5D1002C00D156
S325080007400525284670BD70B505460424CA48FFF7E4FF0446042C18D1C448006902210843FD
S32508000760C249086108464561006940210843BF490861C148FFF7D1FF0446012C05D0BB485F
S325080007800069BE490840B9490861204670BD10B50424B948FFF7C1FF0446042C18D1B34893
S325080007A0006904210843B14908610846006940210843AE490861B048FFF7AFFF0446012C19
S325080007C006D0AA480069AD49891E0840A7490861204610BD10B50424A948A44948614014A1
S325080007E0FFF79BFF0446042C3DD1A1489F498860A048886008460069202108439B490861BA
S325080008000846006940210843984908619A48FFF784FF0446042C1DD19448006997491E39DE
S3250800082008409249086108460069102108438F490861A520924908800F20FFF76EFF0446A6
S32508000840012C10D0894800698C490E3908408749086108E0012C06D08448006987490E396F
S32508000860084082490861204610BD70B5054604247E4845618048FFF750FF0446042C2ED131
S325080008807B487A4988607B48886008460069202108437649086108460069402108437349A7
S325080008A008617548FFF739FF0446042C0ED16F48006972491E3908406C490861084600692E
S325080008C06E490E3908406949086108E0012C06D06648006969490E390840644908612046EA
S325080008E070BD70B505460E4604240F20FFF715FF0446042C25D15D480069012108435B4909
S3250800090008612E800F20FFF708FF0446042C0FD1300C68800F20FFF700FF0446012C10D08D
S32508000920524800695549491C08405049086108E0012C06D04D4800695049491C08404B4996
S325080009400861204670BD70B505460E4604240F20FFF7E3FE0446042C13D144480069012126
S325080009600843424908612E800F20FFF7D6FE0446012C06D03D4800694049491C08403B498E
S325080009800861204670BD70B505460E4604240F20FFF7C3FE0446042C18D135483349886037
S325080009A03448886008460069102108432F4908612E800F20FFF7B1FE0446012C06D02B486F
S325080009C000692E490E39084028490861204670BD70B505460E4604242748FFF79EFE0446F6
S325080009E0042C25D12248214948602248486020488860204888600846006920490E390840E6
S32508000A001A4908610846006910210843174908612E800F20FFF781FE0446042C08D0012C2F
S32508000A2006D01248006915490E3908400F490861204670BDFEB50446124E374630460190ED
S32508000A4000900425E443E6B2FF2000022040070AFF2000042040000C0190200E00900F2071
S32508000A60FFF75BFE0546042D4BD10DE00020024023016745AB89EFCDFF0F0000FD1F000048
S32508000A8000F8FF1FFFFF000056485749886057488860084600691021084353490861FF2E22
S32508000AA005D0534806810F20FFF737FE0546042D07D1FF2F05D04E4847810F20FFF72DFED2
S32508000AC00546042D09D10198FF2806D04849019888810F20FFF721FE0546042D09D10098B7
S32508000AE0FF2806D042490098C8810F20FFF715FE0546012D05D03C4800693E4908403A49BA
S32508000B0008612846FEBDF8B505460E4617460424344835498860354888600F20FFF7FDFDFE
S32508000B200446042C18D130480069102108432E490861284630433843F82108432C4948800A
S32508000B400F20FFF7EAFD0446012C05D02648006928490840244908612046F8BD2248C0691B
S32508000B60800870472048006A704700201E49C96902221140002901D0012000E0002070479F
S32508000B8000201949096820221140002901D0012000E000207047002905D0134A12690243D4
S32508000BA0114B1A6104E0104A126982430E4B1A61704701460020012908D10B4AD2690A4003
S32508000BC0002A01D0012009E0002007E0064AD2680A40002A01D0012000E000207047024909
S32508000BE0C86070472301674500200240AB89EFCD00F8FF1FEF1F000010B504460920C006C4
S32508000C00844209D10121480400F098FA00210120400400F093FA23E07848844208D10121AF
S32508000C20000200F08BFA0021200200F087FA17E07348844208D10121000200F07FFA00217C
S32508000C40200200F07BFA0BE06E48844208D10121080500F073FA00210120000500F06EFA94
S32508000C6010BDFCB502460025002601960020002300240096CE7835072D0FCE7810273E4008
S32508000C80002E01D08E7835430E78002E27D01468002021E00126864033460E881E40019690
S32508000CA0019E9E4217D183000F269E4000962746009EB7433C462E469E403443CE78282EA7
S32508000CC003D101268640566105E0CE78482E02D1012686401661401C0828DBD314600E8872
S32508000CE0FF2E2CDD5468002026E0064608360127B7403B460E881E400196019E9E421AD1AF
S32508000D0083000F269E4000962746009EB7433C462E469E403443CE78282E04D1064608364E
S32508000D200127B7405761CE78482E04D1064608360127B7401761401C0828D6D35460FCBD7A
S32508000D400021C9430180022181700421C17070470246002093680B40002B01D0012000E00B
S32508000D60002070470146886880B2704702460020D3680B40002B01D0012000E000207047AC
S32508000D800146C86880B270470161704741617047002A01D0016100E041617047C160704705
S32508000DA00122120413460B431A46826181618261826982697047F0B5002300244D07EE0E74
S32508000DC01546B5402B46CD10002D0BD1056A4E07F70E0F26BE40B5430562056A1D432C46C2
S32508000DE004620AE0456A4E07F70E0F26BE40B5434562456A1D432C464462F0BD000400489A
S32508000E0000080048000C004800218278002A27D0274A03231B02D21803789B109B00D1585C
S32508000E2002789207D30EFF229A400B469343194642789207120E03789B07DB0E9A40114388
S32508000E401B4A03231B02D21803789B109B00D1500278D306DB0E01229A40154B1A6007E016
S32508000E600278D306DB0E01229A40114B80331A6070477047002905D00E4A126902430D4BC6
S32508000E801A6104E00B4A126982430A4B1A617047042806D10849096904221143064A1161C7
S32508000EA005E00549096904229143034A1161704700E100E000ED00E000E000E0DF48006832
S32508000EC001210843DD49086008464068DC490840DA49486008460068DA490840D749086032
S32508000EE008460068012189048843D4490860002088607047D1490968012212049143CF4ABF
S32508000F00116011460968012292049143CB4A116001210904884206D1114609680246114343
S32508000F20C64A11600AE001218904884206D1C3490968052212041143C04A1160704710B5E3
S32508000F4001460022002300204A11012A02D1BB4C236801E0B94C636ACA06D20E0124944090
S32508000F601C40002C01D0012000E0002010BD38B5002000900024002500BF3120FFF7DFFF52
S32508000F8005460098401C0090002D04D10521090200988842F1D13120FFF7D1FF002801D00D
S32508000FA0012400E00024204638BD01460020A34A1068F82302469A431046CA0010439F4A37
S32508000FC010607047012806D19C490968012211439A4A116005E09949096849084900974A07
S32508000FE01160704701460020944A50688008800002460A431046914A506070478F4840680A
S325080010000C2108407047014600208C4A5068F02302469A43104602460A431046874A5060A7
S32508001020704701460020854A506807231B0202469A43104602460A431046804A506070471F
S32508001040014600207D4A50680723DB0202469A431046CA001043794A50607047002906D0D4
S32508001060764A926803021A43744B9A6005E0734A926803029A43714B9A607047002806D0A4
S325080010806E49496A012211436C4A516205E06B49496A49084900694A5162704710B500210F
S325080010A00022664B5B680C2423401946042902D1654B03601FE008290CD1604B196801232A
S325080010C01B050B40002B02D1604B036013E0604B036010E00C2902D15E4B03600BE0574BF9
S325080010E0196801231B050B40002B02D1564B036001E0594B0360514B5B68F02423401946B3
S325080011000909564B5A5C0368D34043604B4B5B680724240223401946090A504B5A5C4368BC
S32508001120D3408360454B5B68E40023401946C90A4A4B5A5C4368D340C36010BD002905D0E8
S325080011403E4A526902433D4B5A6104E03B4A526982433A4B5A617047002905D0374A92695C
S325080011600243364B9A6104E0344A92698243334B9A617047002905D0304AD26902432F4BDC
S32508001180DA6104E02D4AD26982432C4BDA617047002905D0294AD2680243284BDA6004E0C1
S325080011A0264AD2688243254BDA607047002905D0224A12690243214B1A6104E01F4A126978
S325080011C082431E4B1A617047012806D11B490968C2041143194A116006E018490968012203
S325080011E0D2049143154A1160704714494968072212069143114A516011464968020611431D
S325080012000E4A516070470D48406A0121090608430A494862704701460020084A92680A40D4
S32508001220002A01D0012000E0002070470349896802041143014A91607047000000100240F1
S325080012400000FFF8FFFFF6FE00127A00006CDC0200A24A04409C0000001BB7000000002003
S3250800126010B504464E48844208D101214804FFF79DFF002101204004FFF798FF49488442B2
S3250800128008D101218803FFF783FF002101208003FFF77EFF10BDF0B587B004460D4600269E
S325080012A000200690059000272746E669CF21304688430646A888E988084329890843064343
S325080012C0E661A66976097601A889698908430643A66101A8FFF7E2FE3148874202D10398C7
S325080012E0069001E0049806902968069800F012FA06092968069800F00DFA0007000F05902C
S3250800130026620598606207B0F0BD4B21C9010160302181800021C18001811821418100218B
S3250800132081817047002904D0826901231A43826103E082691C4B1A4082617047002A03D074
S3250800134003690B43036102E003698B4303617047002A03D083690B43836102E083698B4373
S3250800136083617047CAB20260704701464868C0B270470246002093680B40002B01D0012044
S3250800138000E000207047704702460020D3680B40002B01D0012000E00020704741617047B6
S325080013A00044004000380140FEFF00000120144988607047014602221148016000BF1046CE
S325080013C0521E0028FBD10E480068704710B502460B46002100BF04E088001058084C206040
S325080013E0491C9942F8D30648006810BD0448006870470349087170470148007970470000F1
S325080014000030024010B5002819DA354A03071B0F083B9B089B00D2588307DC0EFF23A34095
S325080014209A438B071B0E8407E40EA3401A432C4B0407240F083CA408A4001A5118E0294A2A
S3250800144003231B02D21883089B00D2588307DC0EFF23A3409A438B071B0E8407E40EA34090
S325080014601A43204B032424021B198408A4001A5110BD10B51C4C601E1C49884201D90120D8
S325080014800CE0601E1A4948610321081FFFF7BAFF002017498861072008610020002801D0BC
S325080014A000BFFEE70021481EFFF7ACFF10BD11480068002804D00F480068401E0D490860ED
S325080014C0704700B5FFF7F3FF00BD01B509490098086000BF074800680028FBD108BD0000B6
S325080014E01CED00E000E100E080BB0000FFFFFF0000E000E010000020014608887047F8B5D1
S3250800150005460E461746FFF7D3F83420FFF767FB002407E06000315A2846FFF714FAAD1C23
S32508001520601C84B2BC42F5DB2020FFF758FBFFF7C5F8F8BD10B50446FFF7BAF83420FFF72B
S325080015404EFB2046FFF7FFF82020FFF748FBFFF7B5F810BD30B503460C461546002207E014
S325080015601846FFF7C9FF510060529B1C501C82B2AA42F5DB30BD000010B586B004460121D7
S325080015808803FFF7E9FD01218804FFF7D7FD1B21684601700321417001218170FFF734FCF5
S325080015A0002206212848FFF706FC002207212648FFF701FC019430216846018100214181C8
S325080015C0818101821821C18101A92048FFF763FE012202211D48FFF7B1FE01211B48FFF7C9
S325080015E0A1FE402168468182032181751821C17505A91548FFF735FB8021684681820421FB
S32508001600C17505A91048FFF72CFB06B010BD10B502210E48FFF7B8FE002814D002210B4874
S32508001620FFF7BCFE0948FFF7A0FEC4B2084800882D2808DA074806490988445404480088E7
S32508001640401C0349088010BD000400480038014014000020C4000020F7B584B006460D4623
S325080016600020029001962C460B34039010E0607807022078C01987B2A41C0298411CC9B222
S325080016804000029121490F520398801CC0B20390069903988842EAD310221C490198FFF77B
S325080016A02EFF07B0F0BDFEB504460D460020019026462F46281B800A00900020019012E0A9
S325080016C00122520211493046FFF744FF012252020E493846FFF713FF0120800236183F18E0
S325080016E00198401C0190009901988842E8DBFEBD10B50446606806490860206880F30888C3
S3250800170000BF08460068804710BD0000F20000201800002030B50B46014600202022012464
S3250800172009E00D46D5409D4205D31D469540491B2546954040191546521E002DF1DC30BDAC
S3250800174003460B439B0703D009E008C9121F08C0042AFAD203E00B780370401C491C521EB8
S32508001760F9D27047064C0125064E05E0E36807CC2B430C3C98471034B442F7D3FEF79EFCE2
S32508001780A8170008C817000802E008C8121F08C1002AFAD170477047002001E001C1121F8A
S325080017A0002AFBD170470000C8170008000000201C00000088170008E41700081C00002065
S325080017C0DC0600009817000800000000010203040102030406070809000000000000000030
S325080017E000000000FFFFFFFFFFFFFFFFFFFFFFFFFFFFFFFFFFFFFFFFFFFFFFFFFFFFFFFFF7
S32508001800FFFFFFFFFFFFFFFFFFFFFFFFFFFFFFFFFFFFFFFFFFFFFFFFFFFFFFFFFFFFFFFFDA
S32508001820FFFFFFFFFFFFFFFFFFFFFFFFFFFFFFFFFFFFFFFFFFFFFFFFFFFFFFFFFFFFFFFFBA
S32508001840FFFFFFFFFFFFFFFFFFFFFFFFFFFFFFFFFFFFFFFFFFFFFFFFFFFFFFFFFFFFFFFF9A
S32508001860FFFFFFFFFFFFFFFFFFFFFFFFFFFFFFFFFFFFFFFFFFFFFFFFFFFFFFFFFFFFFFFF7A
S3250800480055AA55AAC102ED0025B18E1EA82E00004F637420323320323032300031343A3026
S32508004820393A313100FFFFFF00040020795E00089F5E0008A15E0008A35E0008A55E000875
S32508004840A75E000800000000000000000000000000000000A95E0008AB5E0008000000001D
S32508004860AD5E0008F15C0008B15E0008B15E000800000000B15E0008B15E0008B15E00084F
S32508004880B15E0008B15E000800000000B15E0008B15E0008B15E0008B15E0008B15E000869
S325080048A0B15E0008BD5C0008B15E00080000000000000000B15E000800000000B15E00086D
S325080048C0B15E0008B15E000800000000B15E0008B15E00080D5D0008B15E000803488546CF
S325080048E002F056FE00480047D75A00080004002010B5002819DAF94A03071B0F083B9B083B
S325080049009B00D2588307DC0EFF23A3409A438B071B0E8407E40EA3401A43F04B0407240F7D
S32508004920083CA408A4001A5118E0ED4A03231B02D21883089B00D2588307DC0EFF23A34045
S325080049409A438B071B0E8407E40EA3401A43E44B032424021B198408A4001A5110BD0020BC
S32508004960E0490870E0490870E0490870E0490870E049487008707047F0B585B005460F461B
S3250800498001F0CCFA00240BE0DB49611809882046E20F1218521052006B469952A01C84B252
S325080049A0102CF1D32846E90F0918491049006A46575201F0B3FAD04801F0FBFA00240CE0BB
S325080049C02646E20F9219521052006B46995ACA4AA01801F0EEFBA01C84B2102CF0D301F0E1
S325080049E0A3FA05B0F0BD10B5C4480468E017000E001900120002201A81B20020FFF7BCFFFD
S32508004A00BF480068010E0220FFF7B6FFBC4800680002010E0420FFF7AFFFB948008800046B
S32508004A20010E0620FFF7A8FFB54801780820FFF7A3FFB44801780A20FFF79EFFB14841787C
S32508004A400C20FFF799FFAF4881780E20FFF794FF0020AD490870FFF782FF10BD10B501212E
S32508004A600920C00601F0AAFD012800D110BD0020FCE710B5FFF7F2FFA4490978884201D022
S32508004A80012010BD0020FCE796480078F02801D100207047934800780F2801D10120F8E7A4
S32508004AA00220F6E770B50024FFF7EEFF0546FFF7E0FF01281ED196480478002D04D0012DFC
S32508004AC008D0022D0DD10BE0601EC4B200208949087007E0601CC4B200208649087001E079
S32508004AE000E000BF00BF8A480470FFF7B7FF8749087001E08648047870BD10B504460F2C6E
S32508004B0025D0F02C11D0FF2C33D1012149020920C00601F06FFD012189020920C00601F020
S32508004B2069FD00207B49087024E0012149020920C00601F05FFD012189020920C00601F06B
S32508004B405BFDFFF7AFFF01207249087012E0012149020920C00601F04FFD01218902092096
S32508004B60C00601F047FDFFF79DFF01206949087000E000BF00BF67480078012825D15D4806
S32508004B800078002806D164480068644908600120584908706248007802280AD15E480068F8
S32508004BA05E490968401AC8280FD301204E4908700BE05948006859490968401A7D2109016A
S32508004BC0884202D301204849087010BD10B502210920C00601F0F2FC012800D110BD002094
S32508004BE0FCE710B5FFF7F2FF012841D1F0203D490870FFF782FF3C480078012838D144489E
S32508004C000078042804D1464908703C4908601BE03F480078012809DD3D480078042805DA08
S32508004C2005203F490870354908600DE038480078012809D1FFF7CAFF012805D10220384912
S32508004C40087003202D490860FF20FFF756FFFF202449087033480068401C324908600846EF
S32508004C600068032802DB062024490860FFF777FEFFF7ACFF002815D1012025490870FF207B
S32508004C80FFF73BFF0020174908702549087025490860012024490870022018490860012010
S32508004CA01949087010BD2148007819490978884206DD0F200B49087001200D4908703AE0CA
S32508004CC01A48007812490978884231DAF020054908700120064908702DE000001CED00E087
S32508004CE000E100E0140100203A0100203D0100203E0100203001002000780008FC000020AB
S32508004D00F8000020000100203C0100203B0100201501002039010020D00000200C010020E6
S32508004D20180100201C01002017010020160100200020FE490870704770B505460C46002602
S32508004D40FB480078002806D1FA480068FA4908600120F7490870012D17D0022D0DD0032D0C
S32508004D6003D0042D13D1282612E00F2C01D1232602E0F02C00D119260AE00F2C01D11E265E
S32508004D8002E0F02C00D11E2602E0172600E000BF00BFE8480068E8490968401AB0420DD30F
S32508004DA0FF20FFF7AAFE0020E0490870E0490870E2490870E2490860FFF7D1FD70BDE14876
S32508004DC00068002800D17047DE480068012800D1F9E7DC480068022800D1F4E7D94800685A
S32508004DE0032800D1EFE7D7480068042800D1EAE7D4480068052800D1E5E7D2480068062880
S32508004E0000D1E0E70620DEE710B5FFF7D8FF012807D1CD490870CD4908700020CC490870A5
S32508004E204AE0FFF7CCFF022846D1CA480078CA490978884234D0BD4800780F2802D1FFF7CF
S32508004E405CFE05E0B9480078F02801D1FFF755FEC2480078012823D1FF20FFF74EFEFFF763
S32508004E60B5FE00280BD10620B44908700120BA490870B3480068401CB149086007E003200B
S32508004E80AE490870AE480068401CAD490860AC480068052802DB0620AA490860FFF75FFD44
S32508004EA0AC480078AC490978884205D19F480178A9480078FFF740FF10BD10B50120A149C7
S32508004EC008600020A64908600120A3490870FFF78AFD10BD10B50446002C03D1F020FFF701
S32508004EE00CFE04E0012C02D10F20FFF706FE9B480078012812D19B48007802280ED00220A1
S32508004F0098490870FF20FFF7F8FD8C480078022802D101208B490860FFF721FD10BD10B5D4
S32508004F2004462146904802F0BBFA00BF01218E4802F0BDFA0028F9D010BD70B504460D4653
S32508004F4003E02078641CFFF7EAFF2846691E8DB20028F6D170BD10B5044621468348FFF7E2
S32508004F60ECFF072C11D18248007801280DD100207F49087000BFBFF34F8F7E487E49C86076
S32508004F80BFF34F8F00BF00BFFEE710BD30B502467A4811E01478521C604000230AE0C407F1
S32508004FA0E40F002C04D04410754D6C40204600E040105B1C082BF2DB0C46491E002CE9D182
S32508004FC0704D28700412704D2C7030BD10B56F480078664908706D48407848706B48807827
S32508004FE088706A48C078C87068480079087167484079487106215D48FFF7C8FF614800781C
S325080050005A49887160480078C8710820FFF7A3FF10BD10B5044600F081FF342001F015FA2D
S32508005020204600F0C6FF202001F00FFA00F07CFF10BDF8B504460D462746002606E0384694
S32508005040FFF7E7FF012080023F18761CAE42F6DBF8BD10B54E480078444908704C48407840
S3250800506048704B48807888704948C078C87048480079087146484079487106213B48FFF7C4
S3250800508085FF40480078394988713F480078C8710820FFF760FF10BDF8B505460E461746D8
S325080050A000F03CFF342001F0D0F9002407E06000315A284601F07DF8AD1C601C84B2BC4266
S325080050C0F5DB202001F0C1F900F02EFFF8BDF7B582B01446029801900025039FE007C00F55
S325080050E0002800D0641C00261EE078780002009039780098081880B20090BF1C29466A1C89
S3250800510095B24900234A009850526008A84209D12A4620490198FFF7BFFF690001980818D6
S3250800512001900025B01C86B2A64235E01401002038010020D000002034010020180100209E
S325080051401C010020FC000020170100203D0100203E01002016010020150100203A0100202B
S32508005160F8000020EA00002000380140A9010020DA0000200400FA0500ED00E0FFFF0000F4
S3250800518001A00000E7000020E8000020C80000205C010020E0010020A7D305B0F0BD10B54A
S325080051A0F748007800280DD12022F649F6480068FFF78DFFF44800682030F3490860FFF7ED
S325080051C048FF0FE0F148EF490268EF480068FFF77EFFFFF73EFF0020ED490870ED490870EF
S325080051E0E749087010BD10B5EA48007800281DD10B2406E0E848015D20460B38E14A1154CB
S32508005200641C2C2CF6DBDF48407B0002DD49097B4018E2490860084600682038DB490860C4
S325080052200120DC490870FFF7BAFF2BE0D7480068202810DB0B2406E0D748015D20460B38F3
S32508005240D04A1154641C2C2CF6DBD04800682038CE49086014E0CD480068202810DA0B24EF
S3250800526006E0CD48015D20460B38C64A1154641CC64800680C308442F3DB0120C049087041
S32508005280FFF78DFF10BD10B5C5480078C5490870C34840784870C44800788870C348007867
S325080052A0C870C248407808710521BE48FFF76EFEBF480078BB494871BE4800788871072005
S325080052C0FFF749FE10BD70B58AB06D46BA4C0026BA492068884226D103210903E0688842EA
S325080052E021D202F001F928222146284602F03EF9701EA860E8600A21284602F005F9A0680A
S32508005300A860E068E860E06828388108AA48283002F0FAF80646A068B04202D100200AB095
S3250800532070BD0120FBE70220F9E710B5FFF7CBFFA34908709A4800790002994949794018EB
S325080053404006000E984908700020984908709C4800784870FFF797FF99480078002803D124
S325080053600120984908700DE00C219348FFF761FE00208749087087490870814908708E4893
S325080053808149086010BD70B506460C46154686480670864804704570FFF775FF70BD70B5EB
S325080053A005460C467E48007900027D49497940184006000E7C4908707C4805704470FFF7AD
S325080053C062FF70BD10B5FFF749FB002808D1FFF7FDFB002804D100210846FFF7E0FF1CE006
S325080053E0FFF73CFB012807D1FFF7F0FB002803D13221FFF7D4FF10E0FFF730FB002808D166
S32508005400FFF7E4FB012804D164210020FFF7C7FF03E096210020FFF7C2FF10BD10B560489F
S325080054200078604908705E48407848705E48007888705E480078C8705C48407808715B48CB
S32508005440807848715948C078887107215548FFF79DFD574800785349C871564800780872EA
S325080054600920FFF778FD10BD10B504464C48007900024B49497940184006000E4A49087092
S32508005480200E4A4908702002000E48702004000E8870CC70FFF7C2FF10BD70B505460C4631
S325080054A049480078012863D10F2D62D00BDC2B0002F080F80F1A2026589EA5AB636363634D
S325080054C0636363B163005C2D54D006DC142D52D05A2D51D05B2D50D1C4E0812D4ED0822D1F
S325080054E04DD0952DF7D1E0E0384A51781078FFF756FFE3E0364A51781078FFF750FFDDE083
S32508005500032C05D1334801780020FFF748FF28E0062C26D122484079052822DA2048407989
S3250800552001281EDB2C480078002812D11C4840792A4908701A48407929490870294800685E
S32508005540401C28490860FFF7AEFB01202649087007E021480078012803D1114840791F4922
S325080055600870ABE0214801780020FFF718FFA5E0AFE056E079E059E06BE09EE08DE08FE08A
S325080055804001002089010020E00000202C010020D90000203F0100205C0100202801002086
S325080055A0C8000020A90100204101002042010020E7000020E80000200018000855AA55AA39
S325080055C0E9000020DA000020D8000020EB000020ED000020150100203901002017010020E2
S325080055E016010020F80000203E01002018010020032C03D100210846FFF7D1FE5EE0FE48FB
S3250800560001780020FFF7CBFE58E0FB4881780020FFF7C5FE52E0F94A51781078FFF7BFFE5E
S325080056204CE0F7480068FFF71FFF47E0F548007800280AD1F2480068401CF14908600120D5
S32508005640F1490870F149087002E00020EF49087034E0EC480078002803D1ED484079ED4946
S3250800566008702BE0FFF7AEFE28E0032C06D1EA4B9A7859781878FFF786FE0DE00F2C0BD1C3
S32508005680E3488078E4490870E14800794870E04840798870FFF7A7F910E0FFF746FE0DE054
S325080056A0102C01D1FFF79FFD08E00C21DB48FFF7C0FC0120DA49087000E000BF00BF062C06
S325080056C001D00F2C01D1FFF781FC0020D549087002E00020D349087070BD10B5D24800888B
S325080056E000283AD0D148007820287DD1CC480078002844D1CC48008808282FDB0020CA4971
S325080057000880CB4908700CE0C848C9490978405CBF49C74A12788854C5480078401CC449CF
S325080057200870C34800780828EEDB0621B848FFF72DFCB7488079BF49097888420DD1B448FC
S32508005740C079BD49097888427DD10120B5490870AF4A5178D078FFF7A0FE74E0B748006873
S32508005760B749884205D30020B4490860AE49088069E0B2480068401CB049086063E0A848DA
S32508005780007801285FD1A84800882D283EDB0020A5490880A64908700CE0A448A449097801
S325080057A0415CA848A24A12788154A1480078401C9F4908709E4800782D28EEDB2B21A14835
S325080057C0FFF7E4FB9F482030C07A9A490978884211D19C482030007B9749097888420AD1B0
S325080057E001209049087000E02AE0964A5178D078FFF753FE27E00020894908709249087043
S32508005800924908708548924908601CE08B4800688B4988420ED300208849086082490880B5
S325080058207F49087088490870884908707B488849086008E081480068401C8049086002E004
S3250800584000207949088010BD30B587B004460D460121084601F0C4F802A801F0C3F904953D
S32508005860029400200590039000216846017602A90120800701F091F90F21684601710121B6
S325080058804171817101A800F0F5FE0121880701F087FC01221146900701F069FC012188078D
S325080058A001F0FAF907B030BD01466A480A181088704770B50020FFF7F7FF6749884203D169
S325080058C000206649086004E00020FFF7EDFF634908600220FFF7E8FF06460420FFF7E4FF41
S325080058E003460620FFF7E0FF04460820FFF7DCFF05460A20FFF7D8FF474908700C20FFF7A7
S32508005900D3FF454948700E20FFF7CEFF4249887052480068002802D13949086007E03006E9
S32508005920190440182102401840193549086070BD10B586B004460121880301F043F80121BD
S32508005940880401F031F81B2168460170032141700121817000F08EFE00220621404800F013
S3250800596060FE002207213E4800F05BFE019430216846018100214181818101821821C181A9
S3250800598001A9384801F025FD01220221354801F073FD0121334801F063FD40216846818298
S325080059A0032181751821C17505A92D4800F08FFD8021684681820421C17505A9284800F0F6
S325080059C086FD06B010BD08B501210320400400F0EBFF0321490268460180032181701021AF
S325080059E0C17069460920C00600F071FD0321684601808170042137E0F2000020EF000020CB
S32508005A00F800002039010020170100203D010020C8000020EA00002000010020001800083D
S32508005A20D9000020D8000020E4000020B2010020E6000020E7000020E8000020DC0000207F
S32508005A40009F24005C0100203F01002040010020E000002000780008FFFF0000FC0000209D
S32508005A600004004800380140C17069460920C00600F02DFD012149020920C00600F0BCFD65
S32508005A80012189020920C00600F0B6FD08BD10B57D21C900AD48006801F052FD0446601E63
S32508005AA0AB49884201D901200CE0601EA94948610321081FFEF71CFF0020A64988610720A0
S32508005AC008610020002801D000BFFEE70021481EFEF70EFF10BDC0229F490120400701F019
S32508005AE045FD0121084600F06DFF032000F0FCFF62B6FFF7CCFFFFF766FF4B20C001FFF726
S32508005B0017FF0121402000F04FFFFFF7D2FE93498E48006801F014FD401E84B26321204641
S32508005B20FFF792FE8E480068022806D1FFF74EF8002802D001208A4908608A48007801288D
S32508005B4009D0FFF743F8002805D1012085490870022083490860FEF781FF83490870ACE02D
S32508005B60FFF72DF90446FFF7B8FD80480078FFF7B1F97F4800687F49096888427ED07C48E2
S32508005B800068401C7A490860230001F013FD070508193F46505A5E00FFF78FF956E007204F
S32508005BA07549087075480078012802D1FFF72CF905E073480078012801D1FFF712F845E01D
S32508005BC06E480078012802D1FFF71EF91DE06C480078012802D1FFF704F816E0674800784C
S32508005BE0002812D15F4800786649097888420CD061480078002808D1624800786249087030
S32508005C00FFF751F801205D4908701FE002205A49087001205549087018E004205649087052
S32508005C2057480078012801D1FEF7DBFF0EE005205149087052480078012801D1FEF7D1FF7E
S32508005C4004E008204C49087000E000BF00BF4F480078012818D14E484078002806D14548C4
S32508005C6000684C4908600120494948704148006848490968401A322806D100E01CE0FEF7F7
S32508005C80B2FE0020424948704348007800280FD13848006841490968401A7D210901884229
S32508005CA006D10020334908603D49086030490860304800683949086000BF51E710B5012184
S32508005CC0880701F084FA2B480068401C2949086033480068401C3249086010BD31480068D7
S32508005CE0002804D02F480068401E2E490860704700B5FFF7F3FF00BD01B52A490098086044
S32508005D0000BF284800680028FBD108BD10B50221254801F0D7FB002817D00221224801F080
S32508005D20DBFB214801F0BFFBC4B2204800882D280BDA1F481D49098844541C480088401C8D
S32508005D401A49088000201B49086010BD48010020FFFFFF0000E000E028480008A0860100CC
S32508005D60FC000020150100203B010020EA00002004010020D0000020180100203E010020B0
S32508005D803D01002017010020160100203C01002030010020100100203901002008010020C6
S32508005DA0D4000020C400002000380140E4000020B2010020DC00002000202C490968012288
S32508005DC011432A4A116000BF28490968022211400029F9D025490968D2049143234A11600D
S32508005DE01146096804229143204A11601115516011211F4A11601D494968890889001B4A7F
S32508005E0051601146496802221143184A516005E0164949688905080E8007800F0228F7D18F
S32508005E20704710B5FFF7C8FF10BD10B50F480068012108430D490860084640680D4908400B
S32508005E400A49486008460068092109048843074908600846006801218904884303490860E5
S32508005E609F2000048860FFF7DCFF10BD00100240002002400000FFF00E4880F308880E4879
S32508005E800168090E0D4A914205D10D480D4901600D480E4901600E4880470E480047FEE7BC
S32508005EA0FEE7FEE7FEE7FEE7FEE7FEE7FEE7FEE7FEE7000000040020040000001F00000080
S32508005EC0181002400100000000000140000000002B5E0008DD48000801460020FE4A106823
S32508005EE03822104002460A431046FB4A10607047F949096808229143F74A11601146096868
S32508005F00014311607047F449096810229143F24A116011460968014311607047EF48EE4904
S32508005F204860EF4848607047EB48006980210843E949086170470420E749C968C907C90F0E
S32508005F40002901D0012010E0E349C96804221140002901D0022008E0DF49C9681022114074
S32508005F60002901D0032000E00420704708B500200090FF20009002E00098401E009000981F
S32508005F800028F9D108BD70B504460425FFF7D3FF054605E0FFF7EAFFFFF7CDFF0546641E3E
S32508005FA0012D01D1002CF5D1002C00D10525284670BD70B505460424CA48FFF7E4FF044652
S32508005FC0042C18D1C448006902210843C249086108464561006940210843BF490861C148C0
S32508005FE0FFF7D1FF0446012C05D0BB480069BE490840B9490861204670BD10B50424B948DA
S32508006000FFF7C1FF0446042C18D1B348006904210843B14908610846006940210843AE49C8
S325080060200861B048FFF7AFFF0446012C06D0AA480069AD49891E0840A7490861204610BD34
S3250800604010B50424A948A44948614014FFF79BFF0446042C3DD1A1489F498860A0488860C9
S3250800606008460069202108439B4908610846006940210843984908619A48FFF784FF044630
S32508006080042C1DD19448006997491E3908409249086108460069102108438F490861A52093
S325080060A0924908800F20FFF76EFF0446012C10D0894800698C490E3908408749086108E0C7
S325080060C0012C06D08448006987490E39084082490861204610BD70B5054604247E484561B0
S325080060E08048FFF750FF0446042C2ED17B487A4988607B48886008460069202108437649F1
S3250800610008610846006940210843734908617548FFF739FF0446042C0ED16F480069724961
S325080061201E3908406C490861084600696E490E3908406949086108E0012C06D0664800697A
S3250800614069490E39084064490861204670BD70B505460E4604240F20FFF715FF0446042CA8
S3250800616025D15D480069012108435B4908612E800F20FFF708FF0446042C0FD1300C68803B
S325080061800F20FFF700FF0446012C10D0524800695549491C08405049086108E0012C06D03B
S325080061A04D4800695049491C08404B490861204670BD70B505460E4604240F20FFF7E3FE0B
S325080061C00446042C13D14448006901210843424908612E800F20FFF7D6FE0446012C06D009
S325080061E03D4800694049491C08403B490861204670BD70B505460E4604240F20FFF7C3FE1B
S325080062000446042C18D13548334988603448886008460069102108432F4908612E800F20D7
S32508006220FFF7B1FE0446012C06D02B4800692E490E39084028490861204670BD70B505469F
S325080062400E4604242748FFF79EFE0446042C25D122482149486022484860204888602048FD
S3250800626088600846006920490E3908401A4908610846006910210843174908612E800F20D4
S32508006280FFF781FE0446042C08D0012C06D01248006915490E3908400F490861204670BD22
S325080062A0FEB50446124E37463046019000900425E443E6B2FF2000022040070AFF200004C2
S325080062C02040000C0190200E00900F20FFF75BFE0546042D4BD10DE00020024023016745C0
S325080062E0AB89EFCDFF0F0000FD1F000000F8FF1FFFFF000056485749886057488860084667
S3250800630000691021084353490861FF2E05D0534806810F20FFF737FE0546042D07D1FF2F85
S3250800632005D04E4847810F20FFF72DFE0546042D09D10198FF2806D04849019888810F207E
S32508006340FFF721FE0546042D09D10098FF2806D042490098C8810F20FFF715FE0546012D12
S3250800636005D03C4800693E4908403A4908612846FEBDF8B505460E4617460424344835499E
S325080063808860354888600F20FFF7FDFD0446042C18D130480069102108432E490861284675
S325080063A030433843F82108432C4948800F20FFF7EAFD0446012C05D0264800692849084058
S325080063C0244908612046F8BD2248C069800870472048006A704700201E49C9690222114035
S325080063E0002901D0012000E00020704700201949096820221140002901D0012000E000201C
S325080064007047002905D0134A12690243114B1A6104E0104A126982430E4B1A617047014675
S325080064200020012908D10B4AD2690A40002A01D0012009E0002007E0064AD2680A40002A47
S3250800644001D0012000E0002070470249C86070472301674500200240AB89EFCD00F8FF1F23
S32508006460EF1F000010B504460920C006844209D10121480400F098FA00210120400400F0FC
S3250800648093FA23E07848844208D10121000200F08BFA0021200200F087FA17E0734884423A
S325080064A008D10121000200F07FFA0021200200F07BFA0BE06E48844208D10121080500F061
S325080064C073FA00210120000500F06EFA10BDFCB502460025002601960020002300240096FD
S325080064E0CE7835072D0FCE7810273E40002E01D08E7835430E78002E27D01468002021E010
S325080065000126864033460E881E400196019E9E4217D183000F269E4000962746009EB743E4
S325080065203C462E469E403443CE78282E03D101268640566105E0CE78482E02D1012686408D
S325080065401661401C0828DBD314600E88FF2E2CDD5468002026E0064608360127B7403B4630
S325080065600E881E400196019E9E421AD183000F269E4000962746009EB7433C462E469E4013
S325080065803443CE78282E04D1064608360127B7405761CE78482E04D1064608360127B7406A
S325080065A01761401C0828D6D35460FCBD0021C9430180022181700421C1707047024600207C
S325080065C093680B40002B01D0012000E0002070470146886880B2704702460020D3680B4085
S325080065E0002B01D0012000E0002070470146C86880B270470161704741617047002A01D0EC
S32508006600016100E041617047C16070470122120413460B431A46826181618261826982693B
S325080066207047F0B5002300244D07EE0E1546B5402B46CD10002D0BD1056A4E07F70E0F26B4
S32508006640BE40B5430562056A1D432C4604620AE0456A4E07F70E0F26BE40B5434562456AB4
S325080066601D432C464462F0BD0004004800080048000C004800218278002A27D0274A032324
S325080066801B02D21803789B109B00D15802789207D30EFF229A400B46934319464278920733
S325080066A0120E03789B07DB0E9A4011431B4A03231B02D21803789B109B00D1500278D306B1
S325080066C0DB0E01229A40154B1A6007E00278D306DB0E01229A40114B80331A6070477047D5
S325080066E0002905D00E4A126902430D4B1A6104E00B4A126982430A4B1A617047042806D1A0
S325080067000849096904221143064A116105E00549096904229143034A1161704700E100E096
S3250800672000ED00E000E000E0DF48006801210843DD49086008464068DC490840DA49486006
S3250800674008460068DA490840D749086008460068012189048843D44908600020886070470E
S32508006760D1490968012212049143CF4A116011460968012292049143CB4A116001210904DF
S32508006780884206D11146096802461143C64A11600AE001218904884206D1C3490968052287
S325080067A012041143C04A1160704710B501460022002300204A11012A02D1BB4C236801E0F2
S325080067C0B94C636ACA06D20E012494401C40002C01D0012000E0002010BD38B5002000904C
S325080067E00024002500BF3120FFF7DFFF05460098401C0090002D04D10521090200988842FA
S32508006800F1D13120FFF7D1FF002801D0012400E00024204638BD01460020A34A1068F8232D
S3250800682002469A431046CA0010439F4A10607047012806D19C490968012211439A4A116080
S3250800684005E09949096849084900974A1160704701460020944A50688008800002460A43B5
S325080068601046914A506070478F4840680C2108407047014600208C4A5068F02302469A439A
S32508006880104602460A431046874A5060704701460020854A506807231B0202469A431046C1
S325080068A002460A431046804A50607047014600207D4A50680723DB0202469A431046CA007C
S325080068C01043794A50607047002906D0764A926803021A43744B9A6005E0734A92680302B8
S325080068E09A43714B9A607047002806D06E49496A012211436C4A516205E06B49496A49085B
S325080069004900694A5162704710B500210022664B5B680C2423401946042902D1654B036082
S325080069201FE008290CD1604B196801231B050B40002B02D1604B036013E0604B036010E084
S325080069400C2902D15E4B03600BE0574B196801231B050B40002B02D1564B036001E0594BF1
S325080069600360514B5B68F024234019460909564B5A5C0368D34043604B4B5B68072424023D
S3250800698023401946090A504B5A5C4368D3408360454B5B68E40023401946C90A4A4B5A5C0B
S325080069A04368D340C36010BD002905D03E4A526902433D4B5A6104E03B4A526982433A4BE4
S325080069C05A617047002905D0374A92690243364B9A6104E0344A92698243334B9A617047AA
S325080069E0002905D0304AD26902432F4BDA6104E02D4AD26982432C4BDA617047002905D01A
S32508006A00294AD2680243284BDA6004E0264AD2688243254BDA607047002905D0224A126930
S32508006A200243214B1A6104E01F4A126982431E4B1A617047012806D11B490968C204114305
S32508006A40194A116006E0184909680122D2049143154A116070471449496807221206914325
S32508006A60114A516011464968020611430E4A516070470D48406A0121090608430A49486260
S32508006A80704701460020084A92680A40002A01D0012000E0002070470349896802041143CA
S32508006AA0014A916070470000001002400000FFF8FFFFF6FE00127A00006CDC0200A24A04D4
S32508006AC0409C0000001BB7004C010020244800688007800F2249086000208860002120483F
S32508006AE0C160016141617047014600201C4A10688008800002460A431046194A10607047EA
S32508006B00002905D0164A12680243154B1A6004E0134A12688243124B1A60704730B500225B
S32508006B208B071C0F0F23A3401A460D4B08338C10A4001B5993430A4C08348D10AD00635168
S32508006B4023468C10A4001B598C07250F0446AC402343034C08348D10AD00635130BD000031
S32508006B600000014010B50446FA48844208D10121C014FFF743FF0021E014FFF73FFF0BE074
S32508006B8001208007844207D101210846FFF744FF00210120FFF740FF10BD002203689AB2DB
S32508006BA0EC4B984206D001239B07984202D0EA4B984204D1E94B1A408B8813439AB20260E5
S32508006BC08B68C3620B688362E24B984205D0E44B984202D0E34B984201D10B7C0363012395
S32508006BE043617047DD497031816000210160C1604160017470478162426170470A46002166
S32508006C00036899B2D54B19400B46134319460160704741627047C16270470146486A704735
S32508006C200146886A80B27047002904D0026802231A43026004E00268C84B6E331A4002601B
S32508006C407047002904D0026804231A43026004E00268C24B6C331A4002607047002904D0B8
S32508006C60026880231A43026004E00268BB4B103B1A40026070470268B84B68331A40026064
S32508006C8002680A43026070470268B74B1A40026002680A4302607047002904D00268012393
S32508006CA01A43026004E00268AC4B6F331A40026070470A884B881A438B881A43CB881A43CB
S32508006CC00B891A434B891A438B891A43426470470021018041808180C180018141818181CB
S32508006CE07047002905D0426C0123DB031A43426403E0426C5204520C4264704770B5002433
S32508006D0000220023056A954E6F3635400562056AAAB24568ABB28569ACB2904D2C40B51E10
S32508006D202C400D882C43751E2A400D892A434D882A43884DA84205D0894DA84202D0894D97
S32508006D40A84212D1854D68352A404D892A43834D6C352A408D882A43804D903D2B40834D0A
S32508006D602B408D892B43CD892B4343608461CD884563026270BD70B5002400220023056A3F
S32508006D80764E603635400562056AAAB24568ABB28569ACB2764D2C40734D2C400D782D067B
S32508006DA02D0C2C436D4D50352A400D892D052D0C2A434D882D052D0C2A43664DA8421CD1CF
S32508006DC06C4D2B408D89AD042D0C2B430546A84213D1624D103D2A404D892D052D0C2A43E6
S32508006DE05E4D30352A408D882D052D0C2A43624D2B40CD89AD042D0C2B4343608461CD8879
S32508006E008563026270BD0021018041808180C180018141818181C181704770B50346002079
S32508006E2000241846183001258D40ACB21D6AE643B6B235401D62002901D0082909D14D10BB
S32508006E40281805687026B54305600568154305600DE00D1F2D046D0C281805680726360384
S32508006E60B543056005681606360C3543056070BD4163704781637047C163704701647047E5
S32508006E80816570470A460021836999B2334B19400B4613431946816170470A4600218369CC
S32508006EA099B2334B194013061B0C194381617047002904D0426801231A43426004E0426815
S32508006EC0264B6F331A40426070470A460021836999B2224B683319400B46134319468161ED
S32508006EE070470A460021836999B2234B194013061B0C1943816170470A460021836999B281
S32508006F00164B6C3319400B4613431946816170470A460021836999B2164B194013061B0CC9
S32508006F201943816170470A460021836999B20B4B103B19400B4613431946816170470A46BD
S32508006F400021836999B24904490C13061B0C194381617047002C0140000400408FFF0000B5
S32508006F600044014000480140FFFC0000FFFD0000FF8F0000FFFB0000FFF700000A4600210F
S32508006F80036A99B2FA4B19400B4613431946016270470A460021036A99B2F54B9B1F1940F1
S32508006FA00B4613431946016270470A460021036A99B2EF4B1E3B194013051B0C1943016290
S32508006FC070470A460021036A99B2E94B7E3B194013051B0C19430162704730B5002301249B
S32508006FE08C40A3B2046ADD43ADB22C400462046A15468D40ADB22C43046230BD30B50023E4
S3250800700004248C40A3B2046ADD43ADB22C400462046A15468D40ADB22C43046230BD00297A
S3250800702004D0426804231A43426004E04268D04B9B1E1A40426070478269CE4B1A40826148
S3250800704082690B061B0C1A4382617047F8B50C460021002500260096066AC54F0E3F3E40B8
S3250800706006628669B1B2066AB5B22605360C0096C14E31401E07360C31431606360C314341
S32508007080BB4E9E3E35401027009E3E43354381610562F8BD8269B64B0A3B1A408261826963
S325080070A00A4382617047F0B50C4600210025066AAF4F7F1C3E4006628669B1B2066AB5B286
S325080070C0AB4EF13E31401E05360C16433143A84E083E354001262643354381610562F0BD28
S325080070E070B505460C46208800280AD12389A28861882846FFF7D7FFE1882846FFF7CAFF86
S325080071000CE02088042809D12389A28861882846FFF79CFFE1882846FFF78EFF70BD002161
S3250800712001804180012181800021C180018170470146486B70470146886B70470146C86B25
S3250800714070470146086C7047C269894B0A3B1A40C261C2690A43C2617047C269854B1A4090
S32508007160C261C2690B061B0C1A43C261704710B5002A03D0C3680B43C36004E0C368CC43C8
S32508007180A4B22340C36010BD416170470246002013690B40002B01D0012000E000207047DC
S325080071A0CA4392B20261704730B5024600200023002415690D40ABB2D5680D40ACB2002B87
S325080071C003D0002C01D0012000E0002030BDCA4392B2026170470B4613438364704710B54E
S325080071E0002A03D0C3680B43C36004E0C368CC43A4B22340C36010BD002904D0426808234F
S325080072001A43426004E04268594B9B1F1A40426070478168564A521F1140816070470A468F
S325080072200021836899B2524B6E3B19400B46134319468160704730B504460D462946204655
S32508007240FFF7EDFFA06807210843A06030BDF8B504460D4616461F46602D06D13B460122C3
S3250800726031462046FFF7F2FE05E03B46012231462046FFF718FF29462046FFF7D0FFA06828
S3250800728007210843A060F8BD30B50C4600218568A9B2C9B21D062D0C154325432943816034
S325080072A030BDFFB505460E46174600243A4631462846039BFFF7E8FFA86884B22C48401F06
S325080072C00440072004432A486E38044070200443AC60FFBDF0B504460D4616461F463B466F
S325080072E0324629462046FFF7CFFFA068012189030843A060F0BD42681D4B6E3B1A4042600A
S3250800730042680A43426070478268194B5B1F1A40826082680A43826070478268144B7E3B39
S325080073201A40826082680A4382607047F0B50C460021002500268768B9B28769BDB2076AA6
S32508007340BEB20B4F7F1F39400F46274339460B4F3D40FF2702373D43054FA83F3E401F056D
S325080073603F0C17433E43816085610662F0BD0000FDFF0000FFF30000FF0C0000FCFC00000C
S32508007380002904D0426880231A43426003E04268014B1A40426070477FFF000010B504467D
S325080073A04E48844208D101214804FFF735FB002101204004FFF730FB4948844208D10121FD
S325080073C08803FFF71BFB002101208003FFF716FB10BDF0B587B004460D460026002006901A
S325080073E0059000272746E669CF21304688430646A888E9880843298908430643E661A66902
S3250800740076097601A889698908430643A66101A8FFF77AFA3148874202D10398069001E070
S32508007420049806902968069800F08AF806092968069800F085F80007000F059026620598F0
S32508007440606207B0F0BD4B21C9010160302181800021C18001811821418100218181704756
S32508007460002904D0826901231A43826103E082691C4B1A4082617047002A03D003690B43D2
S32508007480036102E003698B4303617047002A03D083690B43836102E083698B4383617047F1
S325080074A0CAB20260704701464868C0B270470246002093680B40002B01D0012000E000203E
S325080074C07047704702460020D3680B40002B01D0012000E000207047416170470044004091
S325080074E000380140FEFF00000120144988607047014602221148016000BF1046521E002819
S32508007500FBD10E480068704710B502460B46002100BF04E088001058084C2060491C9942F6
S32508007520F8D30648006810BD0448006870470349087170470148007970470000003002401D
S3250800754030B50B46014600202022012409E00D46D5409D4205D31D469540491B2546954035
S3250800756040191546521E002DF1DC30BD03460B439B0703D009E008C9121F08C0042AFAD239
S3250800758003E00B780370401C491C521EF9D27047064C0125064E05E0E36807CC2B430C3CCC
S325080075A098471034B442F7D3FDF79CF9F07500081076000830B47446641E2578641CAB422C
S325080075C004D3635D5B00E31830BC18471D46F8E702E008C8121F08C1002AFAD17047704714
S325080075E0002001E001C1121F002AFBD17047000010760008C400002098000000D075000885
S32508007600A87600085C010020A4020000E075000800000000000000000000000000000000B6
S32508007620000000000000000000000000001800080000000000000207140200142900D400EC
S32508007640ED000000000000000000000000000000000000000000000000000000000000002F
S325080076600004000100000000000000000000000000000000000000000000000000000000F7
S325080076800000000000000000000000000000000000000000006CDC02000000000102030488
S325080076A00102030406070809FFFFFFFFFFFFFFFFFFFFFFFFFFFFFFFFFFFFFFFFFFFFFFFFAC
S325080076C0FFFFFFFFFFFFFFFFFFFFFFFFFFFFFFFFFFFFFFFFFFFFFFFFFFFFFFFFFFFFFFFFBC
S325080076E0FFFFFFFFFFFFFFFFFFFFFFFFFFFFFFFFFFFFFFFFFFFFFFFFFFFFFFFFFFFFFFFF9C
S32508007700FFFFFFFFFFFFFFFFFFFFFFFFFFFFFFFFFFFFFFFFFFFFFFFFFFFFFFFFFFFFFFFF7B
S32508007720FFFFFFFFFFFFFFFFFFFFFFFFFFFFFFFFFFFFFFFFFFFFFFFFFFFFFFFFFFFFFFFF5B
S32508007740FFFFFFFFFFFFFFFFFFFFFFFFFFFFFFFFFFFFFFFFFFFFFFFFFFFFFFFFFFFFFFFF3B
S32508007760FFFFFFFFFFFFFFFFFFFFFFFFFFFFFFFFFFFFFFFFFFFFFFFFFFFFFFFFFFFFFFFF1B
S32508007780FFFFFFFFFFFFFFFFFFFFFFFFFFFFFFFFFFFFFFFFFFFFFFFFFFFFFFFFFFFFFFFFFB
S325080077A0FFFFFFFFFFFFFFFFFFFFFFFFFFFFFFFFFFFFFFFFFFFFFFFFFFFFFFFFFFFFFFFFDB
S325080077C0FFFFFFFFFFFFFFFFFFFFFFFFFFFFFFFFFFFFFFFFFFFFFFFFFFFFFFFFFFFFFFFFBB
S325080077E0FFFFFFFFFFFFFFFFFFFFFFFFFFFFFFFFFFFFFFFFFFFFFFFFFFFFFFFFFFFFFFFF9B
S3250800780002000000000015004A00000034006D00FFFFFFFFFFFFFFFFFFFFFFFFFFFFFFFF68
S32508007820FFFFFFFFFFFFFFFFFFFFFFFFFFFFFFFFFFFFFFFFFFFFFFFFFFFFFFFFFFFFFFFF5A
S32508007840FFFFFFFFFFFFFFFFFFFFFFFFFFFFFFFFFFFFFFFFFFFFFFFFFFFFFFFFFFFFFFFF3A
S32508007860FFFFFFFFFFFFFFFFFFFFFFFFFFFFFFFFFFFFFFFFFFFFFFFFFFFFFFFFFFFFFFFF1A
S32508007880FFFFFFFFFFFFFFFFFFFFFFFFFFFFFFFFFFFFFFFFFFFFFFFFFFFFFFFFFFFFFFFFFA
S9030000FC
